{
  "contractName": "CourseMarketplace",
  "abi": [
    {
      "inputs": [],
      "stateMutability": "nonpayable",
      "type": "constructor"
    },
    {
      "inputs": [],
      "name": "CourseHasOwner",
      "type": "error"
    },
    {
      "inputs": [],
      "name": "CourseIsNotCreated",
      "type": "error"
    },
    {
      "inputs": [],
      "name": "InvalidState",
      "type": "error"
    },
    {
      "inputs": [],
      "name": "OnlyOwner",
      "type": "error"
    },
    {
      "inputs": [],
      "name": "SenderIsNotCourseOwner",
      "type": "error"
    },
    {
      "inputs": [],
      "name": "isStopped",
      "outputs": [
        {
          "internalType": "bool",
          "name": "",
          "type": "bool"
        }
      ],
      "stateMutability": "view",
      "type": "function"
    },
    {
      "stateMutability": "payable",
      "type": "receive"
    },
    {
      "inputs": [
        {
          "internalType": "uint256",
          "name": "amount",
          "type": "uint256"
        }
      ],
      "name": "withdraw",
      "outputs": [],
      "stateMutability": "nonpayable",
      "type": "function"
    },
    {
      "inputs": [],
      "name": "payout",
      "outputs": [
        {
          "internalType": "bool",
          "name": "res",
          "type": "bool"
        }
      ],
      "stateMutability": "nonpayable",
      "type": "function"
    },
    {
      "inputs": [],
      "name": "emergencyWithdraw",
      "outputs": [],
      "stateMutability": "nonpayable",
      "type": "function"
    },
    {
      "inputs": [],
      "name": "selfDestruct",
      "outputs": [],
      "stateMutability": "nonpayable",
      "type": "function"
    },
    {
      "inputs": [],
      "name": "stopContract",
      "outputs": [],
      "stateMutability": "nonpayable",
      "type": "function"
    },
    {
      "inputs": [],
      "name": "resumeContract",
      "outputs": [],
      "stateMutability": "nonpayable",
      "type": "function"
    },
    {
      "inputs": [
        {
          "internalType": "bytes16",
          "name": "courseId",
          "type": "bytes16"
        },
        {
          "internalType": "bytes32",
          "name": "proof",
          "type": "bytes32"
        }
      ],
      "name": "purchaseCourse",
      "outputs": [],
      "stateMutability": "payable",
      "type": "function"
    },
    {
      "inputs": [
        {
          "internalType": "bytes32",
          "name": "courseHash",
          "type": "bytes32"
        }
      ],
      "name": "repurchaseCourse",
      "outputs": [],
      "stateMutability": "payable",
      "type": "function"
    },
    {
      "inputs": [
        {
          "internalType": "bytes32",
          "name": "courseHash",
          "type": "bytes32"
        }
      ],
      "name": "activateCourse",
      "outputs": [],
      "stateMutability": "nonpayable",
      "type": "function"
    },
    {
      "inputs": [
        {
          "internalType": "bytes32",
          "name": "courseHash",
          "type": "bytes32"
        }
      ],
      "name": "deactivateCourse",
      "outputs": [],
      "stateMutability": "nonpayable",
      "type": "function"
    },
    {
      "inputs": [
        {
          "internalType": "address",
          "name": "newOwner",
          "type": "address"
        }
      ],
      "name": "transferOwnership",
      "outputs": [],
      "stateMutability": "nonpayable",
      "type": "function"
    },
    {
      "inputs": [],
      "name": "getCourseCount",
      "outputs": [
        {
          "internalType": "uint256",
          "name": "",
          "type": "uint256"
        }
      ],
      "stateMutability": "view",
      "type": "function"
    },
    {
      "inputs": [
        {
          "internalType": "uint256",
          "name": "index",
          "type": "uint256"
        }
      ],
      "name": "getCourseHashAtIndex",
      "outputs": [
        {
          "internalType": "bytes32",
          "name": "",
          "type": "bytes32"
        }
      ],
      "stateMutability": "view",
      "type": "function"
    },
    {
      "inputs": [
        {
          "internalType": "bytes32",
          "name": "courseHash",
          "type": "bytes32"
        }
      ],
      "name": "getCourseByHash",
      "outputs": [
        {
          "components": [
            {
              "internalType": "uint256",
              "name": "id",
              "type": "uint256"
            },
            {
              "internalType": "uint256",
              "name": "price",
              "type": "uint256"
            },
            {
              "internalType": "bytes32",
              "name": "proof",
              "type": "bytes32"
            },
            {
              "internalType": "address",
              "name": "owner",
              "type": "address"
            },
            {
              "internalType": "enum CourseMarketplace.State",
              "name": "state",
              "type": "uint8"
            }
          ],
          "internalType": "struct CourseMarketplace.Course",
          "name": "",
          "type": "tuple"
        }
      ],
      "stateMutability": "view",
      "type": "function"
    },
    {
      "inputs": [],
      "name": "getContractOwner",
      "outputs": [
        {
          "internalType": "address",
          "name": "",
          "type": "address"
        }
      ],
      "stateMutability": "view",
      "type": "function"
    }
  ],
  "bytecode": "0x608060405260008060006101000a81548160ff02191690831515021790555034801561002a57600080fd5b5061003a3361003f60201b60201c565b610083565b80600460006101000a81548173ffffffffffffffffffffffffffffffffffffffff021916908373ffffffffffffffffffffffffffffffffffffffff16021790555050565b611880806100926000396000f3fe6080604052600436106100f75760003560e01c80636d11290b1161008a578063c4bc5da511610059578063c4bc5da5146102ee578063d76821cb14610305578063db2e21bc14610321578063f2fde38b14610338576100fe565b80636d11290b14610246578063935d7e6d1461028357806396cfda06146102ac5780639cb8a26a146102d7576100fe565b8063442890d5116100c6578063442890d5146101975780636136e1eb146101c257806362e4e6ac146101de57806363bd1d4a1461021b576100fe565b806312253a6c146101035780632e1a7d4d1461011a57806339262572146101435780633f683b6a1461016c576100fe565b366100fe57005b600080fd5b34801561010f57600080fd5b50610118610361565b005b34801561012657600080fd5b50610141600480360381019061013c9190611280565b6103e9565b005b34801561014f57600080fd5b5061016a600480360381019061016591906112e3565b610527565b005b34801561017857600080fd5b506101816106a1565b60405161018e919061132b565b60405180910390f35b3480156101a357600080fd5b506101ac6106b2565b6040516101b99190611387565b60405180910390f35b6101dc60048036038101906101d791906112e3565b6106dc565b005b3480156101ea57600080fd5b50610205600480360381019061020091906112e3565b610831565b60405161021291906114ae565b60405180910390f35b34801561022757600080fd5b5061023061090d565b60405161023d919061132b565b60405180910390f35b34801561025257600080fd5b5061026d60048036038101906102689190611280565b61097f565b60405161027a91906114d8565b60405180910390f35b34801561028f57600080fd5b506102aa60048036038101906102a591906112e3565b61099c565b005b3480156102b857600080fd5b506102c1610bf5565b6040516102ce9190611502565b60405180910390f35b3480156102e357600080fd5b506102ec610bff565b005b3480156102fa57600080fd5b50610303610cbd565b005b61031f600480360381019061031a9190611575565b610d45565b005b34801561032d57600080fd5b50610336610efe565b005b34801561034457600080fd5b5061035f600480360381019061035a91906115e1565b611052565b005b6103696106b2565b73ffffffffffffffffffffffffffffffffffffffff163373ffffffffffffffffffffffffffffffffffffffff16146103cd576040517f5fc483c500000000000000000000000000000000000000000000000000000000815260040160405180910390fd5b60016000806101000a81548160ff021916908315150217905550565b6103f16106b2565b73ffffffffffffffffffffffffffffffffffffffff163373ffffffffffffffffffffffffffffffffffffffff1614610455576040517f5fc483c500000000000000000000000000000000000000000000000000000000815260040160405180910390fd5b6000600460009054906101000a900473ffffffffffffffffffffffffffffffffffffffff1673ffffffffffffffffffffffffffffffffffffffff168260405161049d9061163f565b60006040518083038185875af1925050503d80600081146104da576040519150601f19603f3d011682016040523d82523d6000602084013e6104df565b606091505b5050905080610523576040517f08c379a000000000000000000000000000000000000000000000000000000000815260040161051a906116b1565b60405180910390fd5b5050565b61052f6106b2565b73ffffffffffffffffffffffffffffffffffffffff163373ffffffffffffffffffffffffffffffffffffffff1614610593576040517f5fc483c500000000000000000000000000000000000000000000000000000000815260040160405180910390fd5b60008054906101000a900460ff16156105ab57600080fd5b6105b4816110ca565b6105ea576040517f4db0c48300000000000000000000000000000000000000000000000000000000815260040160405180910390fd5b600060016000838152602001908152602001600020905060006002811115610615576106146113cf565b5b8160030160149054906101000a900460ff166002811115610639576106386113cf565b5b14610670576040517fbaf3f0f700000000000000000000000000000000000000000000000000000000815260040160405180910390fd5b60018160030160146101000a81548160ff02191690836002811115610698576106976113cf565b5b02179055505050565b60008054906101000a900460ff1681565b6000600460009054906101000a900473ffffffffffffffffffffffffffffffffffffffff16905090565b60008054906101000a900460ff16156106f457600080fd5b6106fd816110ca565b610733576040517f4db0c48300000000000000000000000000000000000000000000000000000000815260040160405180910390fd5b61073c81611139565b610772576040517fcce31cc400000000000000000000000000000000000000000000000000000000815260040160405180910390fd5b600060016000838152602001908152602001600020905060028081111561079c5761079b6113cf565b5b8160030160149054906101000a900460ff1660028111156107c0576107bf6113cf565b5b146107f7576040517fbaf3f0f700000000000000000000000000000000000000000000000000000000815260040160405180910390fd5b60008160030160146101000a81548160ff0219169083600281111561081f5761081e6113cf565b5b02179055503481600101819055505050565b6108396111eb565b600160008381526020019081526020016000206040518060a00160405290816000820154815260200160018201548152602001600282015481526020016003820160009054906101000a900473ffffffffffffffffffffffffffffffffffffffff1673ffffffffffffffffffffffffffffffffffffffff1673ffffffffffffffffffffffffffffffffffffffff1681526020016003820160149054906101000a900460ff1660028111156108f0576108ef6113cf565b5b6002811115610902576109016113cf565b5b815250509050919050565b6000600460009054906101000a900473ffffffffffffffffffffffffffffffffffffffff1673ffffffffffffffffffffffffffffffffffffffff166108fc479081150290604051600060405180830381858888f19350505050158015610977573d6000803e3d6000fd5b506001905090565b600060026000838152602001908152602001600020549050919050565b60008054906101000a900460ff16156109b457600080fd5b6109bc6106b2565b73ffffffffffffffffffffffffffffffffffffffff163373ffffffffffffffffffffffffffffffffffffffff1614610a20576040517f5fc483c500000000000000000000000000000000000000000000000000000000815260040160405180910390fd5b610a29816110ca565b610a5f576040517f4db0c48300000000000000000000000000000000000000000000000000000000815260040160405180910390fd5b600060016000838152602001908152602001600020905060006002811115610a8a57610a896113cf565b5b8160030160149054906101000a900460ff166002811115610aae57610aad6113cf565b5b14610ae5576040517fbaf3f0f700000000000000000000000000000000000000000000000000000000815260040160405180910390fd5b60008160030160009054906101000a900473ffffffffffffffffffffffffffffffffffffffff1673ffffffffffffffffffffffffffffffffffffffff168260010154604051610b339061163f565b60006040518083038185875af1925050503d8060008114610b70576040519150601f19603f3d011682016040523d82523d6000602084013e610b75565b606091505b5050905080610bb9576040517f08c379a0000000000000000000000000000000000000000000000000000000008152600401610bb09061171d565b60405180910390fd5b60028260030160146101000a81548160ff02191690836002811115610be157610be06113cf565b5b021790555060008260010181905550505050565b6000600354905090565b60008054906101000a900460ff16610c1657600080fd5b610c1e6106b2565b73ffffffffffffffffffffffffffffffffffffffff163373ffffffffffffffffffffffffffffffffffffffff1614610c82576040517f5fc483c500000000000000000000000000000000000000000000000000000000815260040160405180910390fd5b600460009054906101000a900473ffffffffffffffffffffffffffffffffffffffff1673ffffffffffffffffffffffffffffffffffffffff16ff5b610cc56106b2565b73ffffffffffffffffffffffffffffffffffffffff163373ffffffffffffffffffffffffffffffffffffffff1614610d29576040517f5fc483c500000000000000000000000000000000000000000000000000000000815260040160405180910390fd5b60008060006101000a81548160ff021916908315150217905550565b60008054906101000a900460ff1615610d5d57600080fd5b60008233604051602001610d729291906117a6565b604051602081830303815290604052805190602001209050610d9381611139565b15610dca576040517fb0fc2d9700000000000000000000000000000000000000000000000000000000815260040160405180910390fd5b600060036000815480929190610ddf90611801565b9190505590508160026000838152602001908152602001600020819055506040518060a001604052808281526020013481526020018481526020013373ffffffffffffffffffffffffffffffffffffffff16815260200160006002811115610e4a57610e496113cf565b5b8152506001600084815260200190815260200160002060008201518160000155602082015181600101556040820151816002015560608201518160030160006101000a81548173ffffffffffffffffffffffffffffffffffffffff021916908373ffffffffffffffffffffffffffffffffffffffff16021790555060808201518160030160146101000a81548160ff02191690836002811115610ef057610eef6113cf565b5b021790555090505050505050565b60008054906101000a900460ff16610f1557600080fd5b610f1d6106b2565b73ffffffffffffffffffffffffffffffffffffffff163373ffffffffffffffffffffffffffffffffffffffff1614610f81576040517f5fc483c500000000000000000000000000000000000000000000000000000000815260040160405180910390fd5b6000600460009054906101000a900473ffffffffffffffffffffffffffffffffffffffff1673ffffffffffffffffffffffffffffffffffffffff1647604051610fc99061163f565b60006040518083038185875af1925050503d8060008114611006576040519150601f19603f3d011682016040523d82523d6000602084013e61100b565b606091505b505090508061104f576040517f08c379a0000000000000000000000000000000000000000000000000000000008152600401611046906116b1565b60405180910390fd5b50565b61105a6106b2565b73ffffffffffffffffffffffffffffffffffffffff163373ffffffffffffffffffffffffffffffffffffffff16146110be576040517f5fc483c500000000000000000000000000000000000000000000000000000000815260040160405180910390fd5b6110c7816111a7565b50565b60008073ffffffffffffffffffffffffffffffffffffffff166001600084815260200190815260200160002060030160009054906101000a900473ffffffffffffffffffffffffffffffffffffffff1673ffffffffffffffffffffffffffffffffffffffff1614159050919050565b60003373ffffffffffffffffffffffffffffffffffffffff166001600084815260200190815260200160002060030160009054906101000a900473ffffffffffffffffffffffffffffffffffffffff1673ffffffffffffffffffffffffffffffffffffffff16149050919050565b80600460006101000a81548173ffffffffffffffffffffffffffffffffffffffff021916908373ffffffffffffffffffffffffffffffffffffffff16021790555050565b6040518060a00160405280600081526020016000815260200160008019168152602001600073ffffffffffffffffffffffffffffffffffffffff1681526020016000600281111561123f5761123e6113cf565b5b81525090565b600080fd5b6000819050919050565b61125d8161124a565b811461126857600080fd5b50565b60008135905061127a81611254565b92915050565b60006020828403121561129657611295611245565b5b60006112a48482850161126b565b91505092915050565b6000819050919050565b6112c0816112ad565b81146112cb57600080fd5b50565b6000813590506112dd816112b7565b92915050565b6000602082840312156112f9576112f8611245565b5b6000611307848285016112ce565b91505092915050565b60008115159050919050565b61132581611310565b82525050565b6000602082019050611340600083018461131c565b92915050565b600073ffffffffffffffffffffffffffffffffffffffff82169050919050565b600061137182611346565b9050919050565b61138181611366565b82525050565b600060208201905061139c6000830184611378565b92915050565b6113ab8161124a565b82525050565b6113ba816112ad565b82525050565b6113c981611366565b82525050565b7f4e487b7100000000000000000000000000000000000000000000000000000000600052602160045260246000fd5b6003811061140f5761140e6113cf565b5b50565b6000819050611420826113fe565b919050565b600061143082611412565b9050919050565b61144081611425565b82525050565b60a08201600082015161145c60008501826113a2565b50602082015161146f60208501826113a2565b50604082015161148260408501826113b1565b50606082015161149560608501826113c0565b5060808201516114a86080850182611437565b50505050565b600060a0820190506114c36000830184611446565b92915050565b6114d2816112ad565b82525050565b60006020820190506114ed60008301846114c9565b92915050565b6114fc8161124a565b82525050565b600060208201905061151760008301846114f3565b92915050565b60007fffffffffffffffffffffffffffffffff0000000000000000000000000000000082169050919050565b6115528161151d565b811461155d57600080fd5b50565b60008135905061156f81611549565b92915050565b6000806040838503121561158c5761158b611245565b5b600061159a85828601611560565b92505060206115ab858286016112ce565b9150509250929050565b6115be81611366565b81146115c957600080fd5b50565b6000813590506115db816115b5565b92915050565b6000602082840312156115f7576115f6611245565b5b6000611605848285016115cc565b91505092915050565b600081905092915050565b50565b600061162960008361160e565b915061163482611619565b600082019050919050565b600061164a8261161c565b9150819050919050565b600082825260208201905092915050565b7f5472616e73666572206661696c65642e00000000000000000000000000000000600082015250565b600061169b601083611654565b91506116a682611665565b602082019050919050565b600060208201905081810360008301526116ca8161168e565b9050919050565b7f5472616e73666572206661696c65642100000000000000000000000000000000600082015250565b6000611707601083611654565b9150611712826116d1565b602082019050919050565b60006020820190508181036000830152611736816116fa565b9050919050565b6000819050919050565b6117586117538261151d565b61173d565b82525050565b60008160601b9050919050565b60006117768261175e565b9050919050565b60006117888261176b565b9050919050565b6117a061179b82611366565b61177d565b82525050565b60006117b28285611747565b6010820191506117c2828461178f565b6014820191508190509392505050565b7f4e487b7100000000000000000000000000000000000000000000000000000000600052601160045260246000fd5b600061180c8261124a565b91507fffffffffffffffffffffffffffffffffffffffffffffffffffffffffffffffff82141561183f5761183e6117d2565b5b60018201905091905056fea26469706673582212201a6cb84ff7563f631adcf33f6c04a0922035b4dba66f9823f666a966460a435164736f6c634300080b0033",
  "immutableReferences": {},
  "source": "\r\n// SPDX-License-Identifier: MIT\r\npragma solidity >=0.4.22 <0.9.0;\r\n\r\ncontract CourseMarketplace {\r\n\r\n  //to represent the state\r\n  enum State{\r\n      Purchased,\r\n      Activated,\r\n      Deactivated\r\n  }\r\n\r\n  struct Course {\r\n      uint id; //32\r\n      uint price; //32\r\n      bytes32 proof; //32\r\n      address owner; //20 bytes\r\n      State state; //1\r\n  }\r\n  bool public isStopped = false;\r\n  // mapping of courseHash to Course data\r\n  mapping(bytes32 => Course) private ownedCourses;\r\n\r\n  // mapping of courseID to courseHash\r\n  mapping(uint => bytes32) private ownedCourseHash;\r\n\r\n  // number of all courses + id of the course\r\n  uint private totalOwnedCourses;\r\n\r\n  address payable private owner; //administrator of the contract\r\n\r\n  constructor() {\r\n    setContractOwner(msg.sender);\r\n  }\r\n\r\n  /// Course has invalid state!\r\n  error InvalidState();\r\n\r\n  /// Course is not created!\r\n  error CourseIsNotCreated();\r\n\r\n  /// Course has already a Owner!\r\n  error CourseHasOwner();\r\n\r\n  /// Sender is not course owner!\r\n  error SenderIsNotCourseOwner();\r\n\r\n  /// Only owner has an access!\r\n  error OnlyOwner();\r\n  //above written will give the commented error\r\n\r\n  modifier onlyOwner() {\r\n    if (msg.sender != getContractOwner()) {\r\n      revert OnlyOwner();\r\n    }\r\n    _;\r\n  }\r\n\r\n  modifier onlyWhenNotStopped {\r\n    require(!isStopped);\r\n    _;\r\n  }\r\n\r\n  modifier onlyWhenStopped {\r\n    require(isStopped);\r\n    _;\r\n  }\r\n\r\n  receive() external payable {}\r\n\r\n  function withdraw(uint amount) external onlyOwner{\r\n    (bool success , ) = owner.call{value: amount}(\"\");\r\n    // (bool success , ) = owner.call{value: address(this).balance}(\"\");\r\n    require(success, \"Transfer failed.\");\r\n  }\r\n\r\n  function payout () public returns(bool res) {\r\n    owner.transfer(address(this).balance);\r\n    return true;\r\n  }\r\n\r\n  function emergencyWithdraw() external onlyWhenStopped onlyOwner{\r\n    (bool success , ) = owner.call{value: address(this).balance}(\"\");\r\n    require(success, \"Transfer failed.\");\r\n  }\r\n\r\n  function selfDestruct()external onlyWhenStopped onlyOwner\r\n  {\r\n    selfdestruct(owner);\r\n  }\r\n\r\n  function stopContract() external onlyOwner {\r\n    isStopped = true;\r\n  }\r\n\r\n  function resumeContract() external onlyOwner { isStopped=false;}\r\n\r\n  function purchaseCourse(\r\n    bytes16 courseId, // 0x00000000000000000000000000003130\r\n    bytes32 proof // 0x0000000000000000000000000000313000000000000000000000000000003130\r\n  )\r\n    external\r\n    payable\r\n    onlyWhenNotStopped\r\n  {\r\n    bytes32 courseHash = keccak256(abi.encodePacked(courseId, msg.sender));\r\n\r\n    if (hasCourseOwnership(courseHash)) {\r\n      revert CourseHasOwner();\r\n    }\r\n\r\n    uint id = totalOwnedCourses++;\r\n\r\n    ownedCourseHash[id] = courseHash;\r\n    ownedCourses[courseHash] = Course({\r\n      id: id,\r\n      price: msg.value,\r\n      proof: proof,\r\n      owner: msg.sender,\r\n      state: State.Purchased\r\n    });\r\n  }\r\n\r\n  function repurchaseCourse(bytes32 courseHash)\r\n    external\r\n    payable\r\n    onlyWhenNotStopped\r\n  {\r\n    if (!isCourseCreated(courseHash)) {\r\n      revert CourseIsNotCreated();\r\n    }\r\n\r\n    if (!hasCourseOwnership(courseHash)) {\r\n      revert SenderIsNotCourseOwner();\r\n    }\r\n\r\n    Course storage course = ownedCourses[courseHash];\r\n\r\n    if (course.state != State.Deactivated) {\r\n      revert InvalidState();\r\n    }\r\n\r\n    course.state = State.Purchased;\r\n    course.price = msg.value;\r\n  }\r\n\r\n  function activateCourse(bytes32 courseHash)\r\n    external\r\n    onlyOwner\r\n    onlyWhenNotStopped\r\n  {\r\n    if (!isCourseCreated(courseHash)) {\r\n      revert CourseIsNotCreated();\r\n    }\r\n\r\n    Course storage course = ownedCourses[courseHash];\r\n\r\n    if (course.state != State.Purchased) {\r\n      revert InvalidState();\r\n    }\r\n\r\n    course.state = State.Activated;\r\n  }\r\n\r\n  function deactivateCourse(bytes32 courseHash)\r\n    external\r\n    onlyWhenNotStopped\r\n    onlyOwner\r\n\r\n  {\r\n    if (!isCourseCreated(courseHash)) {\r\n      revert CourseIsNotCreated();\r\n    }\r\n\r\n    Course storage course = ownedCourses[courseHash];\r\n\r\n    if (course.state != State.Purchased) {\r\n      revert InvalidState();\r\n    }\r\n\r\n    (bool success, ) = course.owner.call{value: course.price}(\"\");\r\n    require(success, \"Transfer failed!\");\r\n\r\n    course.state = State.Deactivated;\r\n    course.price = 0;\r\n  }\r\n\r\n  function transferOwnership(address newOwner)\r\n    external\r\n    onlyOwner\r\n  {\r\n    setContractOwner(newOwner);\r\n  }\r\n\r\n  function getCourseCount()\r\n    external\r\n    view\r\n    returns (uint)\r\n  {\r\n    return totalOwnedCourses;\r\n  }\r\n\r\n  function getCourseHashAtIndex(uint index)\r\n    external\r\n    view\r\n    returns (bytes32)\r\n  {\r\n    return ownedCourseHash[index];\r\n  }\r\n\r\n  function getCourseByHash(bytes32 courseHash)\r\n    external\r\n    view\r\n    returns (Course memory)\r\n  {\r\n    return ownedCourses[courseHash];\r\n  }\r\n\r\n  function getContractOwner()\r\n    public\r\n    view\r\n    returns (address)\r\n  {\r\n    return owner;\r\n  }\r\n\r\n  function setContractOwner(address newOwner) private {\r\n    owner = payable(newOwner);\r\n  }\r\n\r\n  function isCourseCreated(bytes32 courseHash)\r\n    private\r\n    view\r\n    returns (bool)\r\n  {\r\n    return ownedCourses[courseHash].owner != 0x0000000000000000000000000000000000000000;\r\n  }\r\n\r\n  function hasCourseOwnership(bytes32 courseHash)\r\n    private\r\n    view\r\n    returns (bool)\r\n  {\r\n    return ownedCourses[courseHash].owner == msg.sender;\r\n  }\r\n}\r\n\r\n\r\n\r\n\r\n// contract CourseMarketplace {\r\n//     \r\n\r\n\r\n//     modifier onlyOwner() {\r\n//         if (msg.sender != getContractOwner()) {\r\n//         revert OnlyOwner();\r\n//         }\r\n//         _;\r\n//     }\r\n\r\n//     function purchaseCourse(\r\n//         bytes16 courseId,\r\n//         bytes32 proof\r\n//     )external payable {\r\n//         bytes32 courseHash = keccak256(abi.encodePacked(courseId, msg.sender));\r\n//         if(hasCourseOwnership(courseHash)){\r\n//             revert CourseHasOwner();\r\n//         }\r\n//         uint id = totalOwnedCourses++;\r\n//         ownedCourseHash[id] = courseHash;\r\n\r\n//         ownedCourses[courseHash] = Course({\r\n//             id: id,\r\n//             price: msg.value,\r\n//             proof: proof,\r\n//             owner: msg.sender,\r\n//             state: State.Purchased\r\n//         });\r\n//     }\r\n\r\n//     function repurchaseCourse(bytes32 courseHash) external payable{\r\n//         if (!isCourseCreated(courseHash)) {\r\n//             revert CourseIsNotCreated();\r\n//         }\r\n\r\n//         if (!hasCourseOwnership(courseHash)) {\r\n//             revert SenderIsNotCourseOwner();\r\n//         }\r\n\r\n//         Course storage course = ownedCourses[courseHash];\r\n\r\n//         if (course.state != State.Deactivated) {\r\n//             revert InvalidState();\r\n//         }\r\n\r\n//         course.state = State.Purchased;\r\n//         course.price = msg.value;\r\n//     }\r\n\r\n\r\n//     function activateCourse(bytes32 courseHash) external onlyOwner{\r\n//         if (!isCourseCreated(courseHash)) {\r\n//         revert CourseIsNotCreated();\r\n//         }\r\n\r\n//         Course storage course = ownedCourses[courseHash];\r\n\r\n//         if (course.state != State.Purchased) {\r\n//         revert InvalidState();\r\n//         }\r\n\r\n//         course.state = State.Activated;\r\n//     }\r\n\r\n//     function deactivateCourse(bytes32 courseHash)\r\n//     external\r\n//     onlyOwner\r\n//     {\r\n//         if (!isCourseCreated(courseHash)) {\r\n//         revert CourseIsNotCreated();\r\n//         }\r\n\r\n//         Course storage course = ownedCourses[courseHash];\r\n\r\n//         if (course.state != State.Purchased) {\r\n//         revert InvalidState();\r\n//         }\r\n\r\n//         (bool success, ) = course.owner.call{value: course.price}(\"\");\r\n//         require(success, \"Transfer failed!\");\r\n\r\n//         course.state = State.Deactivated;\r\n//         course.price = 0;\r\n//     }\r\n\r\n\r\n\r\n\r\n//     function transferOwnership(address newOwner)\r\n//         external\r\n//         onlyOwner\r\n//     {\r\n//         setContractOwner(newOwner);\r\n//     }\r\n\r\n\r\n//     function getCourseCount() external view returns(uint){\r\n//         return totalOwnedCourses;\r\n//     }\r\n\r\n//     function getCourseHashAtIndex(uint index) external view returns(bytes32){\r\n//         return ownedCourseHash[index];\r\n//     }\r\n\r\n//     function getCourseByHash(bytes32 courseHash) external view returns(Course memory){\r\n//         return ownedCourses[courseHash];\r\n//     }\r\n\r\n//     function getContractOwner()\r\n//         public\r\n//         view\r\n//         returns (address)\r\n//     {\r\n//         return owner;\r\n//     }\r\n\r\n//     function setContractOwner(address newOwner) private{\r\n//         owner = payable(newOwner); //make the owner payable\r\n//     }\r\n\r\n//     function isCourseCreated(bytes32 courseHash)private view returns (bool){\r\n//         return ownedCourses[courseHash].owner != 0x0000000000000000000000000000000000000000;\r\n//     }\r\n\r\n\r\n//     function hasCourseOwnership(bytes32 courseHash) private view returns(bool){\r\n//         return ownedCourses[courseHash].owner == msg.sender;\r\n//     }\r\n\r\n\r\n// }\r\n// // abi - abstract binary index\r\n// //keccak here is run on course id + address\r\n// //first we should have constructor, external, view, public, private\r\n// //storage is used in place of memory whenever we want ot chnage data\r\n// //that also gets updataed in the memory",
  "sourcePath": "C:\\Users\\SAHIL KUMAR GUPTA\\Desktop\\blockchain\\marketplace-eth\\contracts\\CourseMarketplace.sol",
  "compiler": {
    "name": "solc",
    "version": "0.8.11+commit.d7f03943.Emscripten.clang"
  },
  "schemaVersion": "3.4.4",
  "updatedAt": "2022-06-26T17:57:02.651Z",
  "devdoc": {
    "kind": "dev",
    "methods": {},
    "version": 1
  },
  "userdoc": {
    "errors": {
      "CourseHasOwner()": [
        {
          "notice": "Course has already a Owner!"
        }
      ],
      "CourseIsNotCreated()": [
        {
          "notice": "Course is not created!"
        }
      ],
      "InvalidState()": [
        {
          "notice": "Course has invalid state!"
        }
      ],
      "OnlyOwner()": [
        {
          "notice": "Only owner has an access!"
        }
      ],
      "SenderIsNotCourseOwner()": [
        {
          "notice": "Sender is not course owner!"
        }
      ]
    },
    "kind": "user",
    "methods": {},
    "version": 1
  }
}